{
  "_format": "hh-sol-artifact-1",
  "contractName": "NFTGenerator",
  "sourceName": "contracts/generator.sol",
  "abi": [
    {
      "inputs": [],
      "stateMutability": "nonpayable",
      "type": "constructor"
    },
    {
      "anonymous": false,
      "inputs": [
        {
          "indexed": true,
          "internalType": "address",
          "name": "owner",
          "type": "address"
        },
        {
          "indexed": true,
          "internalType": "address",
          "name": "approved",
          "type": "address"
        },
        {
          "indexed": true,
          "internalType": "uint256",
          "name": "tokenId",
          "type": "uint256"
        }
      ],
      "name": "Approval",
      "type": "event"
    },
    {
      "anonymous": false,
      "inputs": [
        {
          "indexed": true,
          "internalType": "address",
          "name": "owner",
          "type": "address"
        },
        {
          "indexed": true,
          "internalType": "address",
          "name": "operator",
          "type": "address"
        },
        {
          "indexed": false,
          "internalType": "bool",
          "name": "approved",
          "type": "bool"
        }
      ],
      "name": "ApprovalForAll",
      "type": "event"
    },
    {
      "anonymous": false,
      "inputs": [
        {
          "indexed": true,
          "internalType": "address",
          "name": "from",
          "type": "address"
        },
        {
          "indexed": true,
          "internalType": "address",
          "name": "to",
          "type": "address"
        },
        {
          "indexed": true,
          "internalType": "uint256",
          "name": "tokenId",
          "type": "uint256"
        }
      ],
      "name": "Transfer",
      "type": "event"
    },
    {
      "inputs": [
        {
          "internalType": "address",
          "name": "to",
          "type": "address"
        },
        {
          "internalType": "uint256",
          "name": "tokenId",
          "type": "uint256"
        }
      ],
      "name": "approve",
      "outputs": [],
      "stateMutability": "nonpayable",
      "type": "function"
    },
    {
      "inputs": [
        {
          "internalType": "address",
          "name": "owner",
          "type": "address"
        }
      ],
      "name": "balanceOf",
      "outputs": [
        {
          "internalType": "uint256",
          "name": "",
          "type": "uint256"
        }
      ],
      "stateMutability": "view",
      "type": "function"
    },
    {
      "inputs": [
        {
          "internalType": "uint256",
          "name": "tokenId",
          "type": "uint256"
        }
      ],
      "name": "getApproved",
      "outputs": [
        {
          "internalType": "address",
          "name": "",
          "type": "address"
        }
      ],
      "stateMutability": "view",
      "type": "function"
    },
    {
      "inputs": [
        {
          "internalType": "address",
          "name": "owner",
          "type": "address"
        },
        {
          "internalType": "address",
          "name": "operator",
          "type": "address"
        }
      ],
      "name": "isApprovedForAll",
      "outputs": [
        {
          "internalType": "bool",
          "name": "",
          "type": "bool"
        }
      ],
      "stateMutability": "view",
      "type": "function"
    },
    {
      "inputs": [
        {
          "internalType": "string",
          "name": "tokenURI",
          "type": "string"
        }
      ],
      "name": "makeAnNFT",
      "outputs": [],
      "stateMutability": "nonpayable",
      "type": "function"
    },
    {
      "inputs": [],
      "name": "name",
      "outputs": [
        {
          "internalType": "string",
          "name": "",
          "type": "string"
        }
      ],
      "stateMutability": "view",
      "type": "function"
    },
    {
      "inputs": [
        {
          "internalType": "uint256",
          "name": "tokenId",
          "type": "uint256"
        }
      ],
      "name": "ownerOf",
      "outputs": [
        {
          "internalType": "address",
          "name": "",
          "type": "address"
        }
      ],
      "stateMutability": "view",
      "type": "function"
    },
    {
      "inputs": [
        {
          "internalType": "address",
          "name": "from",
          "type": "address"
        },
        {
          "internalType": "address",
          "name": "to",
          "type": "address"
        },
        {
          "internalType": "uint256",
          "name": "tokenId",
          "type": "uint256"
        }
      ],
      "name": "safeTransferFrom",
      "outputs": [],
      "stateMutability": "nonpayable",
      "type": "function"
    },
    {
      "inputs": [
        {
          "internalType": "address",
          "name": "from",
          "type": "address"
        },
        {
          "internalType": "address",
          "name": "to",
          "type": "address"
        },
        {
          "internalType": "uint256",
          "name": "tokenId",
          "type": "uint256"
        },
        {
          "internalType": "bytes",
          "name": "_data",
          "type": "bytes"
        }
      ],
      "name": "safeTransferFrom",
      "outputs": [],
      "stateMutability": "nonpayable",
      "type": "function"
    },
    {
      "inputs": [
        {
          "internalType": "address",
          "name": "operator",
          "type": "address"
        },
        {
          "internalType": "bool",
          "name": "approved",
          "type": "bool"
        }
      ],
      "name": "setApprovalForAll",
      "outputs": [],
      "stateMutability": "nonpayable",
      "type": "function"
    },
    {
      "inputs": [
        {
          "internalType": "bytes4",
          "name": "interfaceId",
          "type": "bytes4"
        }
      ],
      "name": "supportsInterface",
      "outputs": [
        {
          "internalType": "bool",
          "name": "",
          "type": "bool"
        }
      ],
      "stateMutability": "view",
      "type": "function"
    },
    {
      "inputs": [],
      "name": "symbol",
      "outputs": [
        {
          "internalType": "string",
          "name": "",
          "type": "string"
        }
      ],
      "stateMutability": "view",
      "type": "function"
    },
    {
      "inputs": [
        {
          "internalType": "uint256",
          "name": "tokenId",
          "type": "uint256"
        }
      ],
      "name": "tokenURI",
      "outputs": [
        {
          "internalType": "string",
          "name": "",
          "type": "string"
        }
      ],
      "stateMutability": "view",
      "type": "function"
    },
    {
      "inputs": [
        {
          "internalType": "address",
          "name": "from",
          "type": "address"
        },
        {
          "internalType": "address",
          "name": "to",
          "type": "address"
        },
        {
          "internalType": "uint256",
          "name": "tokenId",
          "type": "uint256"
        }
      ],
      "name": "transferFrom",
      "outputs": [],
      "stateMutability": "nonpayable",
      "type": "function"
    }
  ],
  "bytecode": "0x60806040523480156200001157600080fd5b506040518060400160405280600981526020017f5371756172654e465400000000000000000000000000000000000000000000008152506040518060400160405280600681526020017f5351554152450000000000000000000000000000000000000000000000000000815250816000908051906020019062000096929190620001cf565b508060019080519060200190620000af929190620001cf565b505050620000fd6040518060400160405280601381526020017f54686973206973206d7920636f6e7472616374000000000000000000000000008152506200010360201b62000b9a1760201c565b620003ac565b620001a3816040516024016200011a9190620002c0565b6040516020818303038152906040527f41304fac000000000000000000000000000000000000000000000000000000007bffffffffffffffffffffffffffffffffffffffffffffffffffffffff19166020820180517bffffffffffffffffffffffffffffffffffffffffffffffffffffffff8381831617835250505050620001a660201b60201c565b50565b60008151905060006a636f6e736f6c652e6c6f679050602083016000808483855afa5050505050565b828054620001dd9062000336565b90600052602060002090601f0160209004810192826200020157600085556200024d565b82601f106200021c57805160ff19168380011785556200024d565b828001600101855582156200024d579182015b828111156200024c5782518255916020019190600101906200022f565b5b5090506200025c919062000260565b5090565b5b808211156200027b57600081600090555060010162000261565b5090565b60006200028c82620002e4565b620002988185620002ef565b9350620002aa81856020860162000300565b620002b5816200039b565b840191505092915050565b60006020820190508181036000830152620002dc81846200027f565b905092915050565b600081519050919050565b600082825260208201905092915050565b60005b838110156200032057808201518184015260208101905062000303565b8381111562000330576000848401525b50505050565b600060028204905060018216806200034f57607f821691505b602082108114156200036657620003656200036c565b5b50919050565b7f4e487b7100000000000000000000000000000000000000000000000000000000600052602260045260246000fd5b6000601f19601f8301169050919050565b612d9880620003bc6000396000f3fe608060405234801561001057600080fd5b50600436106100ea5760003560e01c806370a082311161008c578063b305282011610066578063b30528201461025b578063b88d4fde14610277578063c87b56dd14610293578063e985e9c5146102c3576100ea565b806370a08231146101f157806395d89b4114610221578063a22cb4651461023f576100ea565b8063095ea7b3116100c8578063095ea7b31461016d57806323b872dd1461018957806342842e0e146101a55780636352211e146101c1576100ea565b806301ffc9a7146100ef57806306fdde031461011f578063081812fc1461013d575b600080fd5b61010960048036038101906101049190611d64565b6102f3565b60405161011691906121e6565b60405180910390f35b6101276103d5565b6040516101349190612201565b60405180910390f35b61015760048036038101906101529190611e0b565b610467565b604051610164919061217f565b60405180910390f35b61018760048036038101906101829190611d24565b6104ec565b005b6101a3600480360381019061019e9190611c0e565b610604565b005b6101bf60048036038101906101ba9190611c0e565b610664565b005b6101db60048036038101906101d69190611e0b565b610684565b6040516101e8919061217f565b60405180910390f35b61020b60048036038101906102069190611ba1565b610736565b6040516102189190612443565b60405180910390f35b6102296107ee565b6040516102369190612201565b60405180910390f35b61025960048036038101906102549190611ce4565b610880565b005b61027560048036038101906102709190611dbe565b610896565b005b610291600480360381019061028c9190611c61565b610952565b005b6102ad60048036038101906102a89190611e0b565b6109b4565b6040516102ba9190612201565b60405180910390f35b6102dd60048036038101906102d89190611bce565b610b06565b6040516102ea91906121e6565b60405180910390f35b60007f80ac58cd000000000000000000000000000000000000000000000000000000007bffffffffffffffffffffffffffffffffffffffffffffffffffffffff1916827bffffffffffffffffffffffffffffffffffffffffffffffffffffffff191614806103be57507f5b5e139f000000000000000000000000000000000000000000000000000000007bffffffffffffffffffffffffffffffffffffffffffffffffffffffff1916827bffffffffffffffffffffffffffffffffffffffffffffffffffffffff1916145b806103ce57506103cd82610c33565b5b9050919050565b6060600080546103e490612668565b80601f016020809104026020016040519081016040528092919081815260200182805461041090612668565b801561045d5780601f106104325761010080835404028352916020019161045d565b820191906000526020600020905b81548152906001019060200180831161044057829003601f168201915b5050505050905090565b600061047282610c9d565b6104b1576040517f08c379a00000000000000000000000000000000000000000000000000000000081526004016104a8906123c3565b60405180910390fd5b6004600083815260200190815260200160002060009054906101000a900473ffffffffffffffffffffffffffffffffffffffff169050919050565b60006104f782610684565b90508073ffffffffffffffffffffffffffffffffffffffff168373ffffffffffffffffffffffffffffffffffffffff161415610568576040517f08c379a000000000000000000000000000000000000000000000000000000000815260040161055f90612403565b60405180910390fd5b8073ffffffffffffffffffffffffffffffffffffffff16610587610d09565b73ffffffffffffffffffffffffffffffffffffffff1614806105b657506105b5816105b0610d09565b610b06565b5b6105f5576040517f08c379a00000000000000000000000000000000000000000000000000000000081526004016105ec90612303565b60405180910390fd5b6105ff8383610d11565b505050565b61061561060f610d09565b82610dca565b610654576040517f08c379a000000000000000000000000000000000000000000000000000000000815260040161064b90612423565b60405180910390fd5b61065f838383610ea8565b505050565b61067f83838360405180602001604052806000815250610952565b505050565b6000806002600084815260200190815260200160002060009054906101000a900473ffffffffffffffffffffffffffffffffffffffff169050600073ffffffffffffffffffffffffffffffffffffffff168173ffffffffffffffffffffffffffffffffffffffff16141561072d576040517f08c379a000000000000000000000000000000000000000000000000000000000815260040161072490612343565b60405180910390fd5b80915050919050565b60008073ffffffffffffffffffffffffffffffffffffffff168273ffffffffffffffffffffffffffffffffffffffff1614156107a7576040517f08c379a000000000000000000000000000000000000000000000000000000000815260040161079e90612323565b60405180910390fd5b600360008373ffffffffffffffffffffffffffffffffffffffff1673ffffffffffffffffffffffffffffffffffffffff168152602001908152602001600020549050919050565b6060600180546107fd90612668565b80601f016020809104026020016040519081016040528092919081815260200182805461082990612668565b80156108765780601f1061084b57610100808354040283529160200191610876565b820191906000526020600020905b81548152906001019060200180831161085957829003601f168201915b5050505050905090565b61089261088b610d09565b838361110f565b5050565b60008282905014156108dd576040517f08c379a00000000000000000000000000000000000000000000000000000000081526004016108d490612283565b60405180910390fd5b60006108e9600761127c565b90506108f5338261128a565b6109438184848080601f016020809104026020016040519081016040528093929190818152602001838380828437600081840152601f19601f820116905080830192505050505050506112a8565b61094d600761131c565b505050565b61096361095d610d09565b83610dca565b6109a2576040517f08c379a000000000000000000000000000000000000000000000000000000000815260040161099990612423565b60405180910390fd5b6109ae84848484611332565b50505050565b60606109bf82610c9d565b6109fe576040517f08c379a00000000000000000000000000000000000000000000000000000000081526004016109f5906123a3565b60405180910390fd5b6000600660008481526020019081526020016000208054610a1e90612668565b80601f0160208091040260200160405190810160405280929190818152602001828054610a4a90612668565b8015610a975780601f10610a6c57610100808354040283529160200191610a97565b820191906000526020600020905b815481529060010190602001808311610a7a57829003601f168201915b505050505090506000610aa861138e565b9050600081511415610abe578192505050610b01565b600082511115610af3578082604051602001610adb92919061215b565b60405160208183030381529060405292505050610b01565b610afc846113a5565b925050505b919050565b6000600560008473ffffffffffffffffffffffffffffffffffffffff1673ffffffffffffffffffffffffffffffffffffffff16815260200190815260200160002060008373ffffffffffffffffffffffffffffffffffffffff1673ffffffffffffffffffffffffffffffffffffffff16815260200190815260200160002060009054906101000a900460ff16905092915050565b610c3081604051602401610bae9190612201565b6040516020818303038152906040527f41304fac000000000000000000000000000000000000000000000000000000007bffffffffffffffffffffffffffffffffffffffffffffffffffffffff19166020820180517bffffffffffffffffffffffffffffffffffffffffffffffffffffffff838183161783525050505061144c565b50565b60007f01ffc9a7000000000000000000000000000000000000000000000000000000007bffffffffffffffffffffffffffffffffffffffffffffffffffffffff1916827bffffffffffffffffffffffffffffffffffffffffffffffffffffffff1916149050919050565b60008073ffffffffffffffffffffffffffffffffffffffff166002600084815260200190815260200160002060009054906101000a900473ffffffffffffffffffffffffffffffffffffffff1673ffffffffffffffffffffffffffffffffffffffff1614159050919050565b600033905090565b816004600083815260200190815260200160002060006101000a81548173ffffffffffffffffffffffffffffffffffffffff021916908373ffffffffffffffffffffffffffffffffffffffff160217905550808273ffffffffffffffffffffffffffffffffffffffff16610d8483610684565b73ffffffffffffffffffffffffffffffffffffffff167f8c5be1e5ebec7d5bd14f71427d1e84f3dd0314c0f7b2291e5b200ac8c7c3b92560405160405180910390a45050565b6000610dd582610c9d565b610e14576040517f08c379a0000000000000000000000000000000000000000000000000000000008152600401610e0b906122e3565b60405180910390fd5b6000610e1f83610684565b90508073ffffffffffffffffffffffffffffffffffffffff168473ffffffffffffffffffffffffffffffffffffffff161480610e8e57508373ffffffffffffffffffffffffffffffffffffffff16610e7684610467565b73ffffffffffffffffffffffffffffffffffffffff16145b80610e9f5750610e9e8185610b06565b5b91505092915050565b8273ffffffffffffffffffffffffffffffffffffffff16610ec882610684565b73ffffffffffffffffffffffffffffffffffffffff1614610f1e576040517f08c379a0000000000000000000000000000000000000000000000000000000008152600401610f1590612243565b60405180910390fd5b600073ffffffffffffffffffffffffffffffffffffffff168273ffffffffffffffffffffffffffffffffffffffff161415610f8e576040517f08c379a0000000000000000000000000000000000000000000000000000000008152600401610f85906122a3565b60405180910390fd5b610f99838383611475565b610fa4600082610d11565b6001600360008573ffffffffffffffffffffffffffffffffffffffff1673ffffffffffffffffffffffffffffffffffffffff1681526020019081526020016000206000828254610ff4919061257e565b925050819055506001600360008473ffffffffffffffffffffffffffffffffffffffff1673ffffffffffffffffffffffffffffffffffffffff168152602001908152602001600020600082825461104b91906124f7565b92505081905550816002600083815260200190815260200160002060006101000a81548173ffffffffffffffffffffffffffffffffffffffff021916908373ffffffffffffffffffffffffffffffffffffffff160217905550808273ffffffffffffffffffffffffffffffffffffffff168473ffffffffffffffffffffffffffffffffffffffff167fddf252ad1be2c89b69c2b068fc378daa952ba7f163c4a11628f55a4df523b3ef60405160405180910390a461110a83838361147a565b505050565b8173ffffffffffffffffffffffffffffffffffffffff168373ffffffffffffffffffffffffffffffffffffffff16141561117e576040517f08c379a0000000000000000000000000000000000000000000000000000000008152600401611175906122c3565b60405180910390fd5b80600560008573ffffffffffffffffffffffffffffffffffffffff1673ffffffffffffffffffffffffffffffffffffffff16815260200190815260200160002060008473ffffffffffffffffffffffffffffffffffffffff1673ffffffffffffffffffffffffffffffffffffffff16815260200190815260200160002060006101000a81548160ff0219169083151502179055508173ffffffffffffffffffffffffffffffffffffffff168373ffffffffffffffffffffffffffffffffffffffff167f17307eab39ab6107e8899845ad3d59bd9653f200f220920489ca2b5937696c318360405161126f91906121e6565b60405180910390a3505050565b600081600001549050919050565b6112a482826040518060200160405280600081525061147f565b5050565b6112b182610c9d565b6112f0576040517f08c379a00000000000000000000000000000000000000000000000000000000081526004016112e790612363565b60405180910390fd5b806006600084815260200190815260200160002090805190602001906113179291906119cf565b505050565b6001816000016000828254019250508190555050565b61133d848484610ea8565b611349848484846114da565b611388576040517f08c379a000000000000000000000000000000000000000000000000000000000815260040161137f90612223565b60405180910390fd5b50505050565b606060405180602001604052806000815250905090565b60606113b082610c9d565b6113ef576040517f08c379a00000000000000000000000000000000000000000000000000000000081526004016113e6906123e3565b60405180910390fd5b60006113f961138e565b905060008151116114195760405180602001604052806000815250611444565b8061142384611671565b60405160200161143492919061215b565b6040516020818303038152906040525b915050919050565b60008151905060006a636f6e736f6c652e6c6f679050602083016000808483855afa5050505050565b505050565b505050565b61148983836117d2565b61149660008484846114da565b6114d5576040517f08c379a00000000000000000000000000000000000000000000000000000000081526004016114cc90612223565b60405180910390fd5b505050565b60006114fb8473ffffffffffffffffffffffffffffffffffffffff166119ac565b15611664578373ffffffffffffffffffffffffffffffffffffffff1663150b7a02611524610d09565b8786866040518563ffffffff1660e01b8152600401611546949392919061219a565b602060405180830381600087803b15801561156057600080fd5b505af192505050801561159157506040513d601f19601f8201168201806040525081019061158e9190611d91565b60015b611614573d80600081146115c1576040519150601f19603f3d011682016040523d82523d6000602084013e6115c6565b606091505b5060008151141561160c576040517f08c379a000000000000000000000000000000000000000000000000000000000815260040161160390612223565b60405180910390fd5b805181602001fd5b63150b7a0260e01b7bffffffffffffffffffffffffffffffffffffffffffffffffffffffff1916817bffffffffffffffffffffffffffffffffffffffffffffffffffffffff191614915050611669565b600190505b949350505050565b606060008214156116b9576040518060400160405280600181526020017f300000000000000000000000000000000000000000000000000000000000000081525090506117cd565b600082905060005b600082146116eb5780806116d4906126cb565b915050600a826116e4919061254d565b91506116c1565b60008167ffffffffffffffff81111561170757611706612801565b5b6040519080825280601f01601f1916602001820160405280156117395781602001600182028036833780820191505090505b5090505b600085146117c657600182611752919061257e565b9150600a856117619190612714565b603061176d91906124f7565b60f81b818381518110611783576117826127d2565b5b60200101907effffffffffffffffffffffffffffffffffffffffffffffffffffffffffffff1916908160001a905350600a856117bf919061254d565b945061173d565b8093505050505b919050565b600073ffffffffffffffffffffffffffffffffffffffff168273ffffffffffffffffffffffffffffffffffffffff161415611842576040517f08c379a000000000000000000000000000000000000000000000000000000000815260040161183990612383565b60405180910390fd5b61184b81610c9d565b1561188b576040517f08c379a000000000000000000000000000000000000000000000000000000000815260040161188290612263565b60405180910390fd5b61189760008383611475565b6001600360008473ffffffffffffffffffffffffffffffffffffffff1673ffffffffffffffffffffffffffffffffffffffff16815260200190815260200160002060008282546118e791906124f7565b92505081905550816002600083815260200190815260200160002060006101000a81548173ffffffffffffffffffffffffffffffffffffffff021916908373ffffffffffffffffffffffffffffffffffffffff160217905550808273ffffffffffffffffffffffffffffffffffffffff16600073ffffffffffffffffffffffffffffffffffffffff167fddf252ad1be2c89b69c2b068fc378daa952ba7f163c4a11628f55a4df523b3ef60405160405180910390a46119a86000838361147a565b5050565b6000808273ffffffffffffffffffffffffffffffffffffffff163b119050919050565b8280546119db90612668565b90600052602060002090601f0160209004810192826119fd5760008555611a44565b82601f10611a1657805160ff1916838001178555611a44565b82800160010185558215611a44579182015b82811115611a43578251825591602001919060010190611a28565b5b509050611a519190611a55565b5090565b5b80821115611a6e576000816000905550600101611a56565b5090565b6000611a85611a8084612483565b61245e565b905082815260208101848484011115611aa157611aa061283f565b5b611aac848285612626565b509392505050565b600081359050611ac381612d06565b92915050565b600081359050611ad881612d1d565b92915050565b600081359050611aed81612d34565b92915050565b600081519050611b0281612d34565b92915050565b600082601f830112611b1d57611b1c612835565b5b8135611b2d848260208601611a72565b91505092915050565b60008083601f840112611b4c57611b4b612835565b5b8235905067ffffffffffffffff811115611b6957611b68612830565b5b602083019150836001820283011115611b8557611b8461283a565b5b9250929050565b600081359050611b9b81612d4b565b92915050565b600060208284031215611bb757611bb6612849565b5b6000611bc584828501611ab4565b91505092915050565b60008060408385031215611be557611be4612849565b5b6000611bf385828601611ab4565b9250506020611c0485828601611ab4565b9150509250929050565b600080600060608486031215611c2757611c26612849565b5b6000611c3586828701611ab4565b9350506020611c4686828701611ab4565b9250506040611c5786828701611b8c565b9150509250925092565b60008060008060808587031215611c7b57611c7a612849565b5b6000611c8987828801611ab4565b9450506020611c9a87828801611ab4565b9350506040611cab87828801611b8c565b925050606085013567ffffffffffffffff811115611ccc57611ccb612844565b5b611cd887828801611b08565b91505092959194509250565b60008060408385031215611cfb57611cfa612849565b5b6000611d0985828601611ab4565b9250506020611d1a85828601611ac9565b9150509250929050565b60008060408385031215611d3b57611d3a612849565b5b6000611d4985828601611ab4565b9250506020611d5a85828601611b8c565b9150509250929050565b600060208284031215611d7a57611d79612849565b5b6000611d8884828501611ade565b91505092915050565b600060208284031215611da757611da6612849565b5b6000611db584828501611af3565b91505092915050565b60008060208385031215611dd557611dd4612849565b5b600083013567ffffffffffffffff811115611df357611df2612844565b5b611dff85828601611b36565b92509250509250929050565b600060208284031215611e2157611e20612849565b5b6000611e2f84828501611b8c565b91505092915050565b611e41816125b2565b82525050565b611e50816125c4565b82525050565b6000611e61826124b4565b611e6b81856124ca565b9350611e7b818560208601612635565b611e848161284e565b840191505092915050565b6000611e9a826124bf565b611ea481856124db565b9350611eb4818560208601612635565b611ebd8161284e565b840191505092915050565b6000611ed3826124bf565b611edd81856124ec565b9350611eed818560208601612635565b80840191505092915050565b6000611f066032836124db565b9150611f118261285f565b604082019050919050565b6000611f296025836124db565b9150611f34826128ae565b604082019050919050565b6000611f4c601c836124db565b9150611f57826128fd565b602082019050919050565b6000611f6f6017836124db565b9150611f7a82612926565b602082019050919050565b6000611f926024836124db565b9150611f9d8261294f565b604082019050919050565b6000611fb56019836124db565b9150611fc08261299e565b602082019050919050565b6000611fd8602c836124db565b9150611fe3826129c7565b604082019050919050565b6000611ffb6038836124db565b915061200682612a16565b604082019050919050565b600061201e602a836124db565b915061202982612a65565b604082019050919050565b60006120416029836124db565b915061204c82612ab4565b604082019050919050565b6000612064602e836124db565b915061206f82612b03565b604082019050919050565b60006120876020836124db565b915061209282612b52565b602082019050919050565b60006120aa6031836124db565b91506120b582612b7b565b604082019050919050565b60006120cd602c836124db565b91506120d882612bca565b604082019050919050565b60006120f0602f836124db565b91506120fb82612c19565b604082019050919050565b60006121136021836124db565b915061211e82612c68565b604082019050919050565b60006121366031836124db565b915061214182612cb7565b604082019050919050565b6121558161261c565b82525050565b60006121678285611ec8565b91506121738284611ec8565b91508190509392505050565b60006020820190506121946000830184611e38565b92915050565b60006080820190506121af6000830187611e38565b6121bc6020830186611e38565b6121c9604083018561214c565b81810360608301526121db8184611e56565b905095945050505050565b60006020820190506121fb6000830184611e47565b92915050565b6000602082019050818103600083015261221b8184611e8f565b905092915050565b6000602082019050818103600083015261223c81611ef9565b9050919050565b6000602082019050818103600083015261225c81611f1c565b9050919050565b6000602082019050818103600083015261227c81611f3f565b9050919050565b6000602082019050818103600083015261229c81611f62565b9050919050565b600060208201905081810360008301526122bc81611f85565b9050919050565b600060208201905081810360008301526122dc81611fa8565b9050919050565b600060208201905081810360008301526122fc81611fcb565b9050919050565b6000602082019050818103600083015261231c81611fee565b9050919050565b6000602082019050818103600083015261233c81612011565b9050919050565b6000602082019050818103600083015261235c81612034565b9050919050565b6000602082019050818103600083015261237c81612057565b9050919050565b6000602082019050818103600083015261239c8161207a565b9050919050565b600060208201905081810360008301526123bc8161209d565b9050919050565b600060208201905081810360008301526123dc816120c0565b9050919050565b600060208201905081810360008301526123fc816120e3565b9050919050565b6000602082019050818103600083015261241c81612106565b9050919050565b6000602082019050818103600083015261243c81612129565b9050919050565b6000602082019050612458600083018461214c565b92915050565b6000612468612479565b9050612474828261269a565b919050565b6000604051905090565b600067ffffffffffffffff82111561249e5761249d612801565b5b6124a78261284e565b9050602081019050919050565b600081519050919050565b600081519050919050565b600082825260208201905092915050565b600082825260208201905092915050565b600081905092915050565b60006125028261261c565b915061250d8361261c565b9250827fffffffffffffffffffffffffffffffffffffffffffffffffffffffffffffffff0382111561254257612541612745565b5b828201905092915050565b60006125588261261c565b91506125638361261c565b92508261257357612572612774565b5b828204905092915050565b60006125898261261c565b91506125948361261c565b9250828210156125a7576125a6612745565b5b828203905092915050565b60006125bd826125fc565b9050919050565b60008115159050919050565b60007fffffffff0000000000000000000000000000000000000000000000000000000082169050919050565b600073ffffffffffffffffffffffffffffffffffffffff82169050919050565b6000819050919050565b82818337600083830152505050565b60005b83811015612653578082015181840152602081019050612638565b83811115612662576000848401525b50505050565b6000600282049050600182168061268057607f821691505b60208210811415612694576126936127a3565b5b50919050565b6126a38261284e565b810181811067ffffffffffffffff821117156126c2576126c1612801565b5b80604052505050565b60006126d68261261c565b91507fffffffffffffffffffffffffffffffffffffffffffffffffffffffffffffffff82141561270957612708612745565b5b600182019050919050565b600061271f8261261c565b915061272a8361261c565b92508261273a57612739612774565b5b828206905092915050565b7f4e487b7100000000000000000000000000000000000000000000000000000000600052601160045260246000fd5b7f4e487b7100000000000000000000000000000000000000000000000000000000600052601260045260246000fd5b7f4e487b7100000000000000000000000000000000000000000000000000000000600052602260045260246000fd5b7f4e487b7100000000000000000000000000000000000000000000000000000000600052603260045260246000fd5b7f4e487b7100000000000000000000000000000000000000000000000000000000600052604160045260246000fd5b600080fd5b600080fd5b600080fd5b600080fd5b600080fd5b600080fd5b6000601f19601f8301169050919050565b7f4552433732313a207472616e7366657220746f206e6f6e20455243373231526560008201527f63656976657220696d706c656d656e7465720000000000000000000000000000602082015250565b7f4552433732313a207472616e736665722066726f6d20696e636f72726563742060008201527f6f776e6572000000000000000000000000000000000000000000000000000000602082015250565b7f4552433732313a20746f6b656e20616c7265616479206d696e74656400000000600082015250565b7f746f6b656e5552492063616e277420626520656d707479000000000000000000600082015250565b7f4552433732313a207472616e7366657220746f20746865207a65726f2061646460008201527f7265737300000000000000000000000000000000000000000000000000000000602082015250565b7f4552433732313a20617070726f766520746f2063616c6c657200000000000000600082015250565b7f4552433732313a206f70657261746f7220717565727920666f72206e6f6e657860008201527f697374656e7420746f6b656e0000000000000000000000000000000000000000602082015250565b7f4552433732313a20617070726f76652063616c6c6572206973206e6f74206f7760008201527f6e6572206e6f7220617070726f76656420666f7220616c6c0000000000000000602082015250565b7f4552433732313a2062616c616e636520717565727920666f7220746865207a6560008201527f726f206164647265737300000000000000000000000000000000000000000000602082015250565b7f4552433732313a206f776e657220717565727920666f72206e6f6e657869737460008201527f656e7420746f6b656e0000000000000000000000000000000000000000000000602082015250565b7f45524337323155524953746f726167653a2055524920736574206f66206e6f6e60008201527f6578697374656e7420746f6b656e000000000000000000000000000000000000602082015250565b7f4552433732313a206d696e7420746f20746865207a65726f2061646472657373600082015250565b7f45524337323155524953746f726167653a2055524920717565727920666f722060008201527f6e6f6e6578697374656e7420746f6b656e000000000000000000000000000000602082015250565b7f4552433732313a20617070726f76656420717565727920666f72206e6f6e657860008201527f697374656e7420746f6b656e0000000000000000000000000000000000000000602082015250565b7f4552433732314d657461646174613a2055524920717565727920666f72206e6f60008201527f6e6578697374656e7420746f6b656e0000000000000000000000000000000000602082015250565b7f4552433732313a20617070726f76616c20746f2063757272656e74206f776e6560008201527f7200000000000000000000000000000000000000000000000000000000000000602082015250565b7f4552433732313a207472616e736665722063616c6c6572206973206e6f74206f60008201527f776e6572206e6f7220617070726f766564000000000000000000000000000000602082015250565b612d0f816125b2565b8114612d1a57600080fd5b50565b612d26816125c4565b8114612d3157600080fd5b50565b612d3d816125d0565b8114612d4857600080fd5b50565b612d548161261c565b8114612d5f57600080fd5b5056fea2646970667358221220bfbb7eeec9b9ac97a548e81dec8c3076d121b39b4fe2c03bfe848351e6a3e14164736f6c63430008050033",
  "linkReferences": {},
  "deployedLinkReferences": {}
}